:100000000C9462000C948A000C948A000C948A0070
:100010000C948A000C948A000C948A000C948A0038
:100020000C948A000C948A000C948A000C948A0028
:100030000C948A000C948A000C948A000C948A0018
:100040000C94B3030C948A000C948A000C948A00DC
:100050000C948A000C948A000C948A000C948A00F8
:100060000C94B5010C948A00000000080002010005
:100070000003040700000000000000000102040863
:100080001020408001020408102001020408102002
:10009000040404040404040402020202020203032E
:1000A00003030303000000002300260029000000D2
:1000B0000000250028002B0000000000240027007D
:1000C0002A00880111241FBECFEFD8E0DEBFCDBFCC
:1000D00011E0A0E0B1E0E0E8F8E002C005900D9288
:1000E000A031B107D9F721E0A0E1B1E001C01D9234
:1000F000AA3DB207E1F710E0C4ECD0E004C02297BB
:10010000FE010E943A04C23CD107C9F70E94A40331
:100110000C943E040C94000060E087E00E940B0306
:1001200061E087E00E94440360E088E00E940B03E6
:1001300060E088E00E94440361E083E00E940B03DA
:1001400061E083E00E94440361E082E00C940B03D1
:1001500060E082E00E94440361E083E00C94440389
:1001600060E083E00E94440361E082E00C94440379
:1001700087E00E947A03892B31F4109211011092CA
:1001800010010E94A80088E00E947A03019791F470
:1001900083E00E947A0320911001309111010197B0
:1001A00019F42F5F3F4F02C02150310930931101E4
:1001B000209310018091100190911101889728F4EB
:1001C00082E00E947A03892B41F080911001909186
:1001D000110188972CF00C94B0000E94A800F5CF74
:1001E00008958091410190E020914201821B910984
:1001F00008952091420180914101281750F4E22F87
:10020000F0E0ED5BFE4F808190E02F5F2093420194
:1002100008958FEF9FEF0895E09142018091410191
:10022000E81730F4F0E0ED5BFE4F808190E0089538
:100230008FEF9FEF08950895CF92DF92EF92FF9294
:100240000F931F93CF93DF937C01CB018A01209101
:100250001E01222389F0EB016B01C40ED51ECC15C3
:10026000DD0569F06991D701ED91FC910190F08174
:10027000E02DC7010995F3CF642F0E948C01C801BE
:10028000DF91CF911F910F91FF90EF90DF90CF9072
:100290000895CF93DF931F92CDB7DEB76983209186
:1002A0001E012223D1F020911F01203240F021E0D5
:1002B00030E0FC013383228380E090E015C0809120
:1002C0002001E82FF0E0EF5DFE4F998190838F5F72
:1002D0008093200180931F0105C061E0CE0101964B
:1002E0000E948C0181E090E00F90DF91CF91089502
:1002F000FC011382128248EE53E060E070E0448318
:1003000055836683778384E091E0918380830895A9
:1003100082E191E00C947801613298F42091D0014F
:10032000243089F460938501FC0187E891E0DC01C9
:100330002A2F281B261718F421912D93F9CF80E03E
:10034000089581E0089582E0089585ED8093BC00D2
:100350008091BC0084FDFCCF1092D001089585EC03
:100360008093BC001092D00108951F920F920FB697
:100370000F9211242F933F934F935F936F937F932B
:100380008F939F93AF93BF93EF93FF938091B900A7
:10039000887F803609F49EC078F5883209F45DC004
:1003A00090F4803109F456C038F4882309F4F5C07C
:1003B000883009F44FC0F5C0883109F44EC080324E
:1003C00009F45FC0EEC0803409F46AC058F4803389
:1003D00009F457C0883309F0E4C0809363010E9498
:1003E000AF01DFC0803509F44FC0883509F45DC026
:1003F000883409F0D6C0D3C0883909F4C4C0A8F441
:10040000883709F467C038F4883609F463C0803748
:1004100009F460C0C6C0883809F4B5C0803909F451
:100420005FC0803809F0BDC05BC0803B09F483C069
:1004300038F4803A09F466C0883A09F47CC0B1C047
:10044000803C09F4A4C0883C09F4A1C0883B09F4AD
:1004500087C0A7C08091CF0110C09091A801809162
:10046000A701981770F5E091A80181E08E0F8093A5
:10047000A801F0E0E755FE4F80818093BB0085EC3A
:1004800083C0809363018BC0E091A80181E08E0F4F
:100490008093A8018091BB00F0E0E755FE4F808378
:1004A0009091A8018091A7016BC0E091A80181E023
:1004B0008E0F8093A8018091BB00F0E0E755FE4FBE
:1004C00080838091CE0181116AC081E08093CD014B
:1004D00084EA5EC083E08093D00110926401CFCFA4
:1004E00080916401803208F04EC0E091640181E0A7
:1004F0008E0F809364018091BB00F0E0EB59FE4FBA
:100500008083BDCF0E94AF0180916401803230F4BE
:10051000E0916401F0E0EB59FE4F108260916401BC
:1005200070E0E091C901F091CA0185E691E009957A
:100530001092640136C084E08093D001109286014D
:1005400010928501E091CB01F091CC010995809149
:100550008501811105C081E080938501109287019A
:10056000E091860181E08E0F80938601F0E0E957EB
:10057000FE4F80818093BB00909186018091850120
:10058000981708F47CCF85E88093BC000AC085ECFE
:100590008093BC001092D00104C0109263010E94AD
:1005A000A501FF91EF91BF91AF919F918F917F91A5
:1005B0006F915F914F913F912F910F900FBE0F90D0
:1005C0001F901895833081F028F4813099F08230A3
:1005D000A1F008958730A9F08830B9F08430D1F4C3
:1005E000809180008F7D03C0809180008F77809301
:1005F0008000089584B58F7702C084B58F7D84BD57
:1006000008958091B0008F7703C08091B0008F7DF6
:100610008093B0000895CF93DF9390E0FC01E458FD
:10062000FF4F2491FC01E057FF4F8491882349F14B
:1006300090E0880F991FFC01E854FF4FA591B491F9
:1006400082559F4FFC01C591D4919FB7611108C09D
:10065000F8948C91209582238C93888182230AC000
:10066000623051F4F8948C91322F309583238C931F
:100670008881822B888304C0F8948C91822B8C9380
:100680009FBFDF91CF9108950F931F93CF93DF9377
:100690001F92CDB7DEB7282F30E0F901E859FF4FA0
:1006A0008491F901E458FF4F1491F901E057FF4F8D
:1006B00004910023C9F0882321F069830E94E2029B
:1006C0006981E02FF0E0EE0FFF1FE255FF4FA5918B
:1006D000B4919FB7F8948C91611103C01095812358
:1006E00001C0812B8C939FBF0F90DF91CF911F9101
:1006F0000F910895CF93DF93282F30E0F901E85947
:10070000FF4F8491F901E458FF4FD491F901E0576C
:10071000FF4FC491CC2391F081110E94E202EC2F93
:10072000F0E0EE0FFF1FEC55FF4FA591B4912C9117
:100730002D2381E090E021F480E002C080E090E091
:10074000DF91CF91089508950E94FD030E94A303B5
:100750000E948C00C0E0D0E00E94B8002097E1F336
:100760000E940000F9CF1F920F920FB60F92112432
:100770002F933F938F939F93AF93BF938091D20119
:100780009091D301A091D401B091D5013091D101C4
:1007900023E0230F2D3720F40196A11DB11D05C0C4
:1007A00026E8230F0296A11DB11D2093D10180934D
:1007B000D2019093D301A093D401B093D50180913D
:1007C000D6019091D701A091D801B091D90101969D
:1007D000A11DB11D8093D6019093D701A093D8019C
:1007E000B093D901BF91AF919F918F913F912F917C
:1007F0000F900FBE0F901F901895789484B582606B
:1008000084BD84B5816084BD85B5826085BD85B5B4
:10081000816085BDEEE6F0E0808181608083E1E863
:10082000F0E010828081826080838081816080839B
:10083000E0E8F0E0808181608083E1EBF0E080819E
:1008400084608083E0EBF0E0808181608083EAE770
:10085000F0E08081846080838081826080838081F9
:10086000816080838081806880831092C1000895B8
:10087000EE0FFF1F0590F491E02D0994F894FFCF3F
:100880000000000049011C01F100F9000C011B01EE
:107E0000112484B714BE81FFF0D085E080938100F7
:107E100082E08093C00088E18093C10086E0809377
:107E2000C20080E18093C4008EE0C9D0259A86E02C
:107E300020E33CEF91E0309385002093840096BBD3
:107E4000B09BFECF1D9AA8958150A9F7CC24DD24C4
:107E500088248394B5E0AB2EA1E19A2EF3E0BF2EE7
:107E6000A2D0813461F49FD0082FAFD0023811F036
:107E7000013811F484E001C083E08DD089C08234E0
:107E800011F484E103C0853419F485E0A6D080C0E4
:107E9000853579F488D0E82EFF2485D0082F10E0AE
:107EA000102F00270E291F29000F111F8ED06801E7
:107EB0006FC0863521F484E090D080E0DECF843638
:107EC00009F040C070D06FD0082F6DD080E0C81688
:107ED00080E7D80618F4F601B7BEE895C0E0D1E017
:107EE00062D089930C17E1F7F0E0CF16F0E7DF06D8
:107EF00018F0F601B7BEE89568D007B600FCFDCFD4
:107F0000A601A0E0B1E02C9130E011968C91119780
:107F100090E0982F8827822B932B1296FA010C0160
:107F200087BEE89511244E5F5F4FF1E0A038BF0790
:107F300051F7F601A7BEE89507B600FCFDCF97BE46
:107F4000E89526C08437B1F42ED02DD0F82E2BD052
:107F50003CD0F601EF2C8F010F5F1F4F84911BD097
:107F6000EA94F801C1F70894C11CD11CFA94CF0C13
:107F7000D11C0EC0853739F428D08EE10CD085E9AC
:107F80000AD08FE07ACF813511F488E018D01DD067
:107F900080E101D065CF982F8091C00085FFFCCF94
:107FA0009093C60008958091C00087FFFCCF809118
:107FB000C00084FD01C0A8958091C6000895E0E648
:107FC000F0E098E1908380830895EDDF803219F02E
:107FD00088E0F5DFFFCF84E1DECF1F93182FE3DFCA
:107FE0001150E9F7F2DF1F91089580E0E8DFEE27F6
:047FF000FF270994CA
:027FFE00040479
:0400000300007E007B
:00000001FF
